{
  "_format": "hh-sol-artifact-1",
  "contractName": "Sumfun",
  "sourceName": "contracts/myContract.sol",
  "abi": [
    {
      "inputs": [],
      "stateMutability": "nonpayable",
      "type": "constructor"
    },
    {
      "inputs": [
        {
          "internalType": "uint256",
          "name": "_input1",
          "type": "uint256"
        },
        {
          "internalType": "uint256",
          "name": "_input2",
          "type": "uint256"
        }
      ],
      "name": "add",
      "outputs": [],
      "stateMutability": "nonpayable",
      "type": "function"
    },
    {
      "inputs": [],
      "name": "getOutput",
      "outputs": [
        {
          "internalType": "uint256",
          "name": "",
          "type": "uint256"
        }
      ],
      "stateMutability": "view",
      "type": "function"
    }
  ],
  "bytecode": "0x608060405234801561001057600080fd5b5060006002819055506101d3806100286000396000f3fe608060405234801561001057600080fd5b50600436106100365760003560e01c8063771602f71461003b578063ab1b4b2214610057575b600080fd5b610055600480360381019061005091906100d0565b610075565b005b61005f61008b565b60405161006c919061011f565b60405180910390f35b80826100819190610169565b6002819055505050565b6000600254905090565b600080fd5b6000819050919050565b6100ad8161009a565b81146100b857600080fd5b50565b6000813590506100ca816100a4565b92915050565b600080604083850312156100e7576100e6610095565b5b60006100f5858286016100bb565b9250506020610106858286016100bb565b9150509250929050565b6101198161009a565b82525050565b60006020820190506101346000830184610110565b92915050565b7f4e487b7100000000000000000000000000000000000000000000000000000000600052601160045260246000fd5b60006101748261009a565b915061017f8361009a565b92508282019050808211156101975761019661013a565b5b9291505056fea2646970667358221220eba296a5452d226872048877630261fa78fbdc401614177b61b8bbc4e892999964736f6c63430008110033",
  "linkReferences": {},
  "deployedLinkReferences": {}
}